:0300000002096E84
:0C096E00787FE4F6D8FD75810A020800CD
:0A0986004100420043004400450018
:10086400E4F5A0C282C280C2817F38FE12094A7FA9
:10087400047E001208BC7F067E0012094A7F047EB3
:10088400001208BC7F0C7E0012094A7F047E00120D
:1008940008BC7F017E0012094A7F047E001208BC56
:0708A4007F807E0002094A7B
:1008AB0012091A7FE87E031208BC1209327FE87E18
:0108BB000339
:1008BC00E4FDFCC3ED9FEC9E5015E4FBFA0BBB0072
:0F08CC00010ABA01F8BB7EF50DBD00010C80E4F6
:0108DB0022FA
:10094A00C280C281D2828FA07F0A7E001208BCC2F6
:02095A008222F7
:10095C00D280C281D2828FA07F0A7E001208BCC2D4
:02096C008222E5
:1008DC008B088A09890AAB08AA09A90A12090160BE
:1008EC0013050AE50A7002050914F9120901FF1231
:0508FC00095C80E2220E
:10091A00900000B2877F017E001208BCA3E582B472
:07092A00DCF1E583B405ECEC
:0109310022A3
:10093200900000B2877F017E001208BCA3E582B45A
:07094200EEF1E583B402ECC5
:01094900228B
:060999001208B502091A64
:090990001208AB1208B50209328D
:0C097A001208AB12091A1208B802093268
:06099F001208AB02093250
:0309A50002093212
:100800001208647F807E0012094A75900F30900EA6
:100810007BFF7A0979861208DC120999803D3091B4
:100820000E7BFF7A0979881208DC120990802C303F
:10083000920E7BFF7A09798A1208DC12097A801BF2
:100840007BFF30930C7A09798C1208DC12099F80A7
:100850000A7A09798E1208DC1209A57F017E00123E
:0408600008BC80F759
:10090100BB010689828A83E0225002E722BBFE02F4
:09091100E32289828A83E4932227
:00000001FF
