:03000000020DFBF3
:0C0DFB00787FE4F6D8FD75813C020E42C2
:100B41005072657373204120666F72204163636F39
:100B5100756E7420646973706C617920616E6420B4
:100B61005720666F72207769746864726177696E65
:100B71006720636173680D0A0048656C6C6F2C20F7
:100B8100506C6561736520656E74657220416363A5
:100B91006F756E74204E756D6265720D0A0041634A
:100BA100636F756E7420486F6C6465723A20536987
:100BB10074610D0A004163636F756E742042616C4C
:100BC100616E63653A20000D0A004163636F756EC3
:100BD1007420486F6C6465723A20476974610D0A2C
:100BE100004E6F2073756368206163636F756E7467
:100BF1002C20706C6561736520656E74657220765A
:100C0100616C69642064657461696C730D0A0057D5
:100C1100697468647261772073746174652C2065EE
:100C21006E746572206163636F756E74206E756D8D
:100C31006265720D0A00456E74657220416D6F75B3
:100C41006E742C20696E2068756E64726564730D14
:100C51000A00506C6561736520656E746572207061
:100C6100617373776F72640D0A0052656D61696E0D
:100C7100696E672042616C616E63653A20003530B0
:100C810030204E6F7465733A20002C2031303020B3
:080C91004E6F7465733A2000F8
:100F1000C101C100060E000000000000060800002C
:100F20000000000003170000000314000000051A71
:050F30000000000000BC
:100F5400758920758DF3D28E759850D2ACD2AF229C
:080D4D007B007A007908AF2C4D
:100D55008E388F398B3A8A3B893C7C277D10120C63
:100D6500F8EF2430120CB2AE38AF397C277D101263
:100D75000CF87E037FE8CFCDCFCECCCE120CF8EFAA
:100D85002430AB3AAA3BA93C900001120CC4AE3802
:100D9500AF397C037DE8120CF87E007F64CFCDCFA0
:100DA500CECCCE120CF8EF2430AB3AAA3BA93C903E
:100DB5000002120CC4AE38AF397C007D64120CF809
:100DC5007E007F0ACFCDCFCECCCE120CF8EF2430EB
:100DD500AB3AAA3BA93C900003120CC4AE38AF391C
:100DE5007C007D0A120CF8ED2430AB3AAA3BA93CF5
:060DF500900004020CC492
:0A0E87007B007A007917AF34AE3318
:100E91008E388F398B3A8A3B893C7C007D0A120C53
:100EA100F87E007F0ACFCDCFCECCCE120CF8EF2446
:100EB10030120CB2AE38AF397C007D0A120CF8ED5D
:0E0EC1002430AB3AAA3BA93C900001020CC4BD
:080F74008F993001FDC201223A
:100ECF00120F4A8F22120F4A8F2374D02522F52238
:0C0EDF0074D02523F5237BFF7A0C795397
:100EEB008B388A39893AAB38AA39A93A120C9960EE
:100EFB0013053AE53A7002053914F9120C99FF12F1
:050F0B000F7480E222DA
:100F3600120F4A8F24120F4A8F25120F4A8F26123C
:040F46000F4A8F2798
:090F4A00E4FF3000FDC200AF9984
:010F5300227B
:03002300020F6465
:100F6400309905C299D20132309804C298D2003225
:03080000120F5480
:10080300E4F521F522F523F524F525F526F527F55D
:1008130028752927752A10752B27752C10F52DF5AA
:100823002EF52FF530F531F532F533F534F535F591
:1008330036FB7A00790EAF2AAE29120D55AE2B1274
:100843000D4D7BFF7A0B7941120EEB120F4A8F216C
:0C085300E52164616006E52164417058F5
:10085F00E4F5377BFF7A0B797A120EEB120F4A8F82
:10086F0037E537B4311B7BFF7A0B799F120EEB7B89
:10087F00FF7A0B79B6120EEB7B007A00790E020924
:10088F00F5E5377BFFB432197A0B79CB120EEB7B80
:10089F00FF7A0B79B6120EEB7B007A00790802090A
:0508AF00F57A0B79E26F
:0308B400020B2F05
:1008B700E4F5377BFF7A0C7910120EEB120F4A8F93
:1008C70037E53764316003020A017BFF7A0B799FB2
:1008D700120EEB7BFF7A0B79B6120EEB7B007A00D8
:1008E700790E120EEB7BFF7A0B79C8120EEB7BFFAA
:1008F7007A0C7937120EEB120ECF120F368F28E5CE
:100907002464456003020803E52564456003020883
:1009170003E52664336003020803E52764336003B5
:10092700020803E52864376003020803F52D8522D2
:100937002EF52F852330AE2DAF2E7C037DE8120CCC
:10094700E68E2D8F2EAE2FAF307C007D64120CE625
:100957008E2F8F30E52E2530F532E52D352FF531E9
:10096700FEAF320C7DF4120CF88E338F34AE31AFFC
:10097700327C017DF4120CF87E007F64CFCDCFCEA0
:10098700CCCE120CF88E358F36C3E52A9532F52A70
:10099700E5299531F5297B007A00790EAF2AFE12F9
:1009A7000D55120E877B007A007914AF36AE3512DB
:1009B7000E917BFF7A0C796B120EEB7B007A007934
:1009C7000E120EEB7BFF7A0B79C8120EEB7BFF7AC8
:1009D7000C797F120EEB7B007A007917120EEB7BF6
:1009E700FF7A0C798B120EEB7B007A007914120ECA
:1009F700EB7BFF7A0B79C8020B2FE5376432600374
:100A0700020B357BFF7A0B79CB120EEB7BFF7A0B50
:100A170079B6120EEB7B007A007908120EEB7BFF9A
:100A27007A0B79C8120EEB7BFF7A0C7937120EEB33
:100A3700120ECF120F368F28E52464556003020883
:100A470003E52564506003020803E526644C600350
:100A5700020803E52764416003020803E5286442AE
:100A67006003020803F52D85222EF52F852330AE6E
:100A77002DAF2E7C037DE8120CE68E2D8F2EAE2F28
:100A8700AF307C007D64120CE68E2F8F30E52E256B
:100A970030F532E52D352FF531FEAF320C7DF412EE
:100AA7000CF88E338F34AE31AF327C017DF4120CEB
:100AB700F87E007F64CFCDCFCECCCE120CF88E352A
:100AC7008F36C3E52C9532F52CE52B9531F52BFEAA
:100AD700120D4D120E877B007A007914AF36AE35B2
:100AE700120E917BFF7A0C796B120EEB7B007A006A
:100AF7007908120EEB7BFF7A0B79C8120EEB7BFF9E
:100B07007A0C797F120EEB7B007A007917120EEBC5
:100B17007BFF7A0C798B120EEB7B007A007914122B
:100B27000EEB7BFF7A0B79C8120EEB0208037BFFF3
:0A0B37007A0B79E2120EEB020803BC
:100E0700020800E493A3F8E493A34003F68001F2F9
:100E170008DFF48029E493A3F85407240CC8C333EC
:100E2700C4540F4420C8834004F456800146F6DFBB
:100E3700E4800B0102040810204080900F10E47E2C
:100E4700019360BCA3FF543F30E509541FFEE493B0
:100E5700A360010ECF54C025E060A840B8E493A377
:100E6700FAE493A3F8E493A3C8C582C8CAC583CAA2
:100E7700F0A3C8C582C8CAC583CADFE9DEE780BE5A
:010F350000BB
:100C9900BB010689828A83E0225002E722BBFE0259
:090CA900E32289828A83E493228C
:100CB200BB010689828A83F0225002F722BBFE0121
:020CC200F3221B
:100CC400F8BB010DE58229F582E5833AF583E8F066
:100CD400225006E92582C8F622BBFE05E92582C812
:020CE400F222FA
:100CE600EF8DF0A4A8F0CF8CF0A428CE8DF0A42E22
:020CF600FE22DC
:100CF800BC000BBE0029EF8DF084FFADF022E4CCE0
:100D0800F875F008EF2FFFEE33FEEC33FCEE9DECA8
:100D1800984005FCEE9DFE0FD5F0E9E4CEFD22EDEE
:100D2800F8F5F0EE8420D21CFEADF075F008EF2F38
:100D3800FFED33FD4007985006D5F0F222C398FD29
:050D48000FD5F0EA22C6
:00000001FF
