:03000000020D8569
:0C0D8500787FE4F6D8FD758137020DCCB4
:100AE3005072657373204120666F72204163636F98
:100AF300756E7420646973706C617920616E642013
:100B03005720666F72207769746864726177696EC3
:100B13006720636173680D0A0048656C6C6F2C2055
:100B2300506C6561736520656E7465722041636303
:100B33006F756E74204E756D6265720D0A004163A8
:100B4300636F756E7420486F6C6465723A205369E5
:100B530074610D0A004163636F756E742042616CAA
:100B6300616E63653A20000D0A004163636F756E21
:100B73007420486F6C6465723A20476974610D0A8A
:100B8300004E6F2073756368206163636F756E74C5
:100B93002C20706C6561736520656E7465722076B8
:100BA300616C69642064657461696C730D0A005734
:100BB300697468647261772073746174652C20654D
:100BC3006E746572206163636F756E74206E756DEC
:100BD3006265720D0A00456E74657220416D6F7512
:100BE3006E742C20696E2068756E64726564730D73
:100BF3000A0052656D61696E696E672042616C61BE
:100C03006E63653A2000353030204E6F7465733A59
:100C130020002C20313030204E6F7465733A200051
:100E8400C101C100060E00000000000006080000B9
:100E94000000000003170000000314000000051AFE
:050EA400000000000049
:100EAA00758920758DF3D28E759850D2ACD2AF2247
:080CD7007B007A007908AF27C9
:100CDF008E338F348B358A3689377C277D10120CF3
:100CEF0082EF2430120C3CAE33AF347C277D1012D0
:100CFF000C827E037FE8CFCDCFCECCCE120C82EF0D
:100D0F002430AB35AA36A937900001120C4EAE3302
:100D1F00AF347C037DE8120C827E007F64CFCDCF91
:100D2F00CECCCE120C82EF2430AB35AA36A9379039
:100D3F000002120C4EAE33AF347C007D64120C8275
:100D4F007E007F0ACFCDCFCECCCE120C82EF2430D7
:100D5F00AB35AA36A937900003120C4EAE33AF3421
:100D6F007C007D0A120C82ED2430AB35AA36A937F0
:060D7F00900004020C4E7E
:0A0E11007B007A007917AF2FAE2E98
:100E1B008E338F348B358A3689377C007D0A120CE2
:100E2B00827E007F0ACFCDCFCECCCE120C82EF24A8
:100E3B0030120C3CAE33AF347C007D0A120C82EDC9
:0E0E4B002430AB35AA36A937900001020C4EB8
:080ED4008F993001FDC20122DB
:060E59007BFF7A0B7958C3
:100E5F008B338A348935AB33AA34A935120C23600E
:100E6F00130535E5357002053414F9120C23FF1202
:050E7F000ED480E22208
:090ECA00E4FF3000FDC200AF9905
:010ED30022FC
:03002300020EBA10
:100EBA00309905C299D20132309804C298D20032D0
:03080000120EAA2B
:10080300E4F521F522F52375242775251075262790
:10081300752710F528F529F52AF52BF52CF52DF577
:100823002EF52FF530F531FB7A00790EAF25AE2486
:10083300120CDFAE26120CD77BFF7A0A79E3120E75
:100843005F120ECA8F21E52164616006E5216441D0
:02085300704CE7
:10085500E4F5327BFF7A0B791C120E5F120ECA8FFC
:1008650032E532B431157BFF7A0B7941120E5F12F6
:100875000E597B007A00790E0209BBE5327BFFB485
:1008850032137A0B796D120E5F120E597B007A00C6
:0908950079080209BB7A0B798491
:03089E00020AD17A
:1008A100E4F5327BFF7A0B79B2120E5F120ECA8F1A
:1008B10032E532643160030209C77BFF7A0B79416B
:1008C100120E5F120E597B007A00790E120E5F7BB9
:1008D100FF7A0B796A120E5F7BFF7A0B79D9120EC0
:1008E1005F120ECA8F22120ECA8F2374D02522F5F1
:1008F1002274D02523F523752800852229752A0025
:10090100F52BAE28AF297C037DE8120C708E288F61
:1009110029AE2AAF2B7C007D64120C708E2A8F2B9E
:10092100E529252BF52DE528352AF52CFEAF2D0CD3
:100931007DF4120C828E2E8F2FAE2CAF2D7C017D7B
:10094100F4120C827E007F64CFCDCFCECCCE120CC0
:10095100828E308F31C3E525952DF525E524952C23
:10096100F5247B007A00790EAF25FE120CDF120E02
:10097100117B007A007914AF31AE30120E1B7BFF70
:100981007A0B79F5120E5F7B007A00790E120E5FF9
:100991007BFF7A0B796A120E5F7BFF7A0C79091261
:1009A1000E5F7B007A007917120E5F7BFF7A0C795C
:1009B10015120E5F7B007A007914120E5F7BFF7AAD
:1009C1000B796A020AD1E53264326003020AD77BED
:1009D100FF7A0B796D120E5F120E597B007A007946
:1009E10008120E5F7BFF7A0B796A120E5F7BFF7A2A
:1009F1000B79D9120E5F120ECA8F22120ECA8F23E3
:100A010074D02522F52274D02523F523752800857D
:100A11002229752A00F52BAE28AF297C037DE81227
:100A21000C708E288F29AE2AAF2B7C007D64120CAE
:100A3100708E2A8F2BE529252BF52DE528352AF5F2
:100A41002CFEAF2D0C7DF4120C828E2E8F2FAE2C2E
:100A5100AF2D7C017DF4120C827E007F64CFCDCF5F
:100A6100CECCCE120C828E308F31C3E527952DF579
:100A710027E526952CF526FE120CD7120E117B00C8
:100A81007A007914AF31AE30120E1B7BFF7A0B79ED
:100A9100F5120E5F7B007A007908120E5F7BFF7AF8
:100AA1000B796A120E5F7BFF7A0C7909120E5F7B5C
:100AB100007A007917120E5F7BFF7A0C7915120EFE
:100AC1005F7B007A007914120E5F7BFF7A0B796AE3
:100AD100120E5F0208037BFF7A0B7984120E5F020C
:020AE100080308
:100D9100020800E493A3F8E493A34003F68001F270
:100DA10008DFF48029E493A3F85407240CC8C33363
:100DB100C4540F4420C8834004F456800146F6DF32
:100DC100E4800B0102040810204080900E84E47E30
:100DD100019360BCA3FF543F30E509541FFEE49327
:100DE100A360010ECF54C025E060A840B8E493A3EE
:100DF100FAE493A3F8E493A3C8C582C8CAC583CA19
:100E0100F0A3C8C582C8CAC583CADFE9DEE780BED0
:010EA9000048
:100C2300BB010689828A83E0225002E722BBFE02CF
:090C3300E32289828A83E4932202
:100C3C00BB010689828A83F0225002F722BBFE0197
:020C4C00F32291
:100C4E00F8BB010DE58229F582E5833AF583E8F0DC
:100C5E00225006E92582C8F622BBFE05E92582C888
:020C6E00F22270
:100C7000EF8DF0A4A8F0CF8CF0A428CE8DF0A42E98
:020C8000FE2252
:100C8200BC000BBE0029EF8DF084FFADF022E4CC56
:100C9200F875F008EF2FFFEE33FEEC33FCEE9DEC1F
:100CA200984005FCEE9DFE0FD5F0E9E4CEFD22ED65
:100CB200F8F5F0EE8420D21CFEADF075F008EF2FAF
:100CC200FFED33FD4007985006D5F0F222C398FDA0
:050CD2000FD5F0EA223D
:00000001FF
