:03000000020030CB
:04003000116080FEDD
:1000600075A00075900091B391B3914891B391B38D
:1000700091B37483918591B390030091A591B3746A
:10008000C2918591B390030B91A591B3D290912E1B
:10009000912E75A882758CF8758A2F758911D29466
:1000A00079007A007B007C00D28C20900280FBC219
:1000B0008CC28DC29480007482918591B390031894
:1000C00091A591B374C5918591B390032691A591A3
:1000D000B374C0918591B3EC24309194EB243091AA
:1000E00094EA24309194E924309194912E912E91A8
:0800F0002E912E912E020060FA
:03000B00020400EC
:10040000C28CB909117900BA090F7A00BB090D7BBA
:1004100000BC090B800C0980090A80060B80030CC4
:100420008000758CF8758A2F758911D28C327A32DA
:100430009135DAFC22758911758D63758BC0D28E6A
:10044000308FFDC28EC28F2275A038C280C281D289
:100450008291B3C28291B375A00CC280C281D28254
:1004600091B3C28291B375A001C280C281D2829140
:10047000B3C28291B375A006C280C281D28291B309
:10048000C28291B322F5A0C280C281D28291B3C24E
:100490008291B322F5A0D280C281D28291B3C2826E
:1004A00091B391B322C0E0E49360059194A380F7E7
:1004B000D0E022C000C001780179FFD9FED8FAD07F
:0404C00001D0002245
:10030000546F67676C6520535731006966204C4510
:100310004420676C6F7773005265616374696F6E18
:100320002054696D65006D696C697365636F6E64F7
:02033000730058
:00000001FF
