:03000000020030CB
:04003000116080FEDD
:03001B00020400DC
:1000600075891175A888758D3C758BAFD28EE4FDAE
:10007000FE31378000C374009E602CC374019E6003
:100080002CC374029E602CC374039E602CC3740442
:100090009E602CC374059E602CC374069E602AC3A8
:1000A00074079E602A80B911D5B28780C811E5B265
:1000B0008780C211F5B28780BC11E5B28780B63166
:1000C00005B28780B0312580AC3105B28780A6317A
:1000D00015B28780A0758CEE758A3ED28C308DFD6E
:1000E000C28CC28D22758CF0758A2FD28C308DFD1A
:1000F000C28CC28D22758CF2758ABFD28C308DFD78
:10010000C28CC28D22758CF5758A70D28C308DFDB3
:10011000C28CC28D22758CF4758A29D28C308DFDEB
:10012000C28CC28D22C287758CEE758A3ED28C300D
:100130008DFDC28CC28D2275A00075900031C23138
:10014000C2315731C231C231C27482319431C2904E
:10015000030031B431C22275A038C280C281D2827C
:1001600031C2C28231C275A00CC280C281D282313A
:10017000C2C28231C275A001C280C281D28231C2A4
:0D018000C28231C275A006C280C281D28247
:10018D0031C2C28231C222F5A0C280C281D2823177
:10019D00C2C28231C222F5A0D280C281D28231C2C6
:1001AD00C28231C231C222C0E0E493600531A3A303
:1001BD0080F7D0E022C000C001780179FFD9FED8C8
:0601CD00FAD001D000226F
:0D030000524F4C4C494E472054494D45008A
:10040000C374009E602AC374019E6024C374029E5C
:10041000601EC374039E6018C374049E601AC37484
:10042000059E601CC374069E600EC374079E600820
:100430000DBD1E16E4FD80100DBD280EE4FD8008E4
:100440000DBD1406E4FD80000E32758D3C758BAF3A
:03045000D28E3217
:00000001FF
